:020000040800F2
:1000000028050020D5000008151E0008EB18000880
:1000100000000000000000000000000000000000E0
:100020000000000000000000000000005120000857
:100030000000000000000000091F000895200008D3
:10004000000000000000000000000000E7000008C1
:10005000E7000008A1050008E70000087106000895
:100060000000000000000000000000000000000090
:10007000E7000008E9200008E70000080000000091
:1000800000000000E700000800000000E700000892
:10009000000000000000000000000000E700000871
:1000A00000000000E700000800000000E700000872
:1000B0000000000000000000000000000000000040
:1000C0000348854600F062F8004800470D26000806
:1000D000280500200448804704480047FEE7FEE763
:1000E000FEE7FEE7FEE7FEE79D200008C1000008EE
:1000F00030B50B46014600202022012409E00D46C0
:10010000D5409D4205D31D469540491B2546954047
:1001100040191546521E002DF1DC30BD70B500248B
:100120002546002801DA01244042002901DA012590
:100130004942FFF7DDFFAC4200D04042002C00D026
:10014000494270BD03460B439B0703D009E008C931
:10015000121F08C0042AFAD203E00B780370401C77
:10016000491C521EF9D27047D2B201E00270401C05
:10017000491EFBD270470022F6E710B513460A4627
:1001800004461946FFF7F0FF204610BD064C012536
:10019000064E05E0E36807CC2B430C3C984710342F
:1001A000B442F7D3FFF790FF4C2800086C280008F2
:1001B00000BFFEE700B58DB0242104A8FFF7DBFFE8
:1001C000002000900190029003900F200490FF20E7
:1001D00001300890002009900F48008880B20A90F2
:1001E000002005900B90069004A801F019F8002853
:1001F00001D0FFF7DDFF0720009000200190029062
:1002000003900021684600F0E7FE002801D0FFF7C8
:10021000CFFF0DB000BD00000001FF1F0F48104AC6
:100220001279002A00D17047002110E08A000C4B9F
:10023000603B9A58072A03D901228A40104304E000
:1002400001228A400346934318464A1CD1B218291A
:10025000ECDB0023024A137100BFE4E7FFFFFF005D
:1002600000010020FEB505463C212846FFF740FF6F
:10027000C6B23C212846FFF73BFF02910A213046D7
:10028000FFF74CFFC4B20A213046FFF747FFCFB259
:100290000A210298FFF742FFC0B201900A2102989A
:1002A000FFF73CFFC8B20090002C05D00022214689
:1002B000042001F03DFE04E000221521042001F09D
:1002C00037FE1248007801280FD111480078002825
:1002D00005D101223946032001F02AFE0AE000225E
:1002E0003946032001F024FE04E0002239460320B1
:1002F00001F01EFE00220220019901F019FE0022E9
:100300000120009901F014FEFEBD00005000002005
:100310000200002014484089002824D012480078A8
:10032000002820D0104841684068401C0E4A5060A8
:100330000E48814206D30020114648600846408995
:10034000401E4881084801890089401C064A1081E6
:100350000748814207DD00201146088105480078E2
:10036000C0430449087070475000002084270900EA
:100370000F2700000200002008B505494143009105
:1003800000BF00BF00994A1E00920029F9D108BDA4
:10039000B80B000010B57C480078012800D010BDD3
:1003A0007A480078002819D100221521042001F094
:1003B000BFFD00221146032001F0BAFD00220F21EB
:1003C000022001F0B5FD00220F21012001F0B0FD57
:1003D000002202216E4800F070FDD3E06B480078E7
:1003E000012819D100221521042001F0A1FD0022CD
:1003F0001521032001F09CFD00221146022001F08E
:1004000097FD00221221012001F092FD012202211C
:100410005F4800F052FDB5E05C48007802282CD11E
:1004200000221521042001F083FD00221521032064
:1004300001F07EFD00220A21022001F079FD002258
:100440001121012001F074FD52480021016041603A
:10045000816051480078002805D1012202214C48D2
:1004600000F02BFD8EE04C4800780128B5D1002229
:100470000221474800F021FD84E048480078002828
:1004800002D0012879D119E04348007800280BD127
:10049000012040490870012202213D4800F00DFD75
:1004A00001203E49087008E03B480078012804D14B
:1004B00000220221364800F000FD5EE03548408908
:1004C000002859D100220221314800F0F6FC00201A
:1004D0003049087048603048007800284CD02E48D9
:1004E0000078012848D129480078C01E030001F097
:1004F00069FE0C070B0F13171C21262B30353A3FD2
:100500003C202449488133E07820224948812FE06B
:10051000B420204948812BE0F0201E49488127E083
:10052000FF202D301B49488122E0FF206930194906
:1005300048811DE0FF20A5301649488118E0FF20C2
:10054000E1301449488113E0872080001149488137
:100550000EE04B20C0000F49488109E0A520800033
:100560000C49488104E02D2000010A49488100BF60
:1005700000BF00200949087000BF00BF0549488935
:10058000FFF770FE00BF0AE7010000200000002016
:100590000004005050000020140000200300002040
:1005A00010B53148C068C007C00F002859D00120DD
:1005B0002D49C8602D480079012800D110BD0121C6
:1005C0002A4841710520000700F06EFC012844D143
:1005D0002648007B002802D001283DD11CE023489A
:1005E0006038006E822808D220486038006E6E287D
:1005F00003D301211D48017303E000211B4801734F
:1006000041710021194801710020184960390866BC
:100610000021164881711FE014486038016E603077
:1006200080798000114A603A115000201146086616
:100630000E488079401CC1B20C488171807918281D
:1006400005D1012109480171002181710173002048
:1006500006496039886600BF03E00020034960391D
:10066000086600BFAAE70000001802400001002051
:1006700010B50848C068012149020840002807D089
:1006800008460449C86001220349044802F006F8FC
:1006900010BD00000018024000000020003C0008CF
:1006A00000B532480078012800D000BD00202F4955
:1006B000087001202E49087000202E490870FF2084
:1006C0002D4908702D4908702D48002101604160B6
:1006D00081602C480078030001F074FD0F090A0BBB
:1006E0000C1014181C21262B30353A3F440039E0F9
:1006F00038E037E03C202249488133E07820204927
:1007000048812FE0B4201E4948812BE0F0201C498D
:10071000488127E0FF202D301949488122E0FF2041
:100720006930174948811DE0FF20A53014494881F0
:1007300018E0FF20E1301249488113E08720800053
:100740000F4948810EE04B20C0000D49488109E067
:10075000A52080000A49488104E02D2000010849B5
:10076000488100BF00BF00BF9FE700000C000020D1
:1007700001000020030000201400002015000020CC
:100780005000002000000020002006494860064874
:10079000406904210843044948610448C1060860CF
:1007A0007047000010010020002002402143341255
:1007B0000021054A51600549496902221143034A53
:1007C0005161FF21016070471001002000200240AC
:1007D000F0B502460B46002014461D46104E7669C1
:1007E00001273E430E4F7E6100BFEFF31086314676
:1007F00072B60EE02E6826602D1D241D461CF0B238
:100800001F2806D1064E76690127FF043E43044F98
:100810007E612028EED300BF81F3108800BFF0BDB9
:1008200000200240044949690122D2021143024AD0
:100830005161FF21016070470020024070B50446FD
:1008400000F042FB051905E000F03EFBA84201D391
:10085000032070BD06480069012109040840000C0E
:100860000028F1D10348024908610020F1E70000A7
:100870000020024011800000F8B504460E46012712
:10088000002500BF8E480078012801D10220F8BD64
:1008900001208B49087000BF00BF8A4949680722C0
:1008A00052031140480B884909688200874B9A58C7
:1008B0001288D205D20D914246D1834949688200FF
:1008C0009A5812681201920D91423DD17E490969F0
:1008D00082009A5812689203D20D914234D17A491B
:1008E000896882009A589288D205D20D91422BD104
:1008F0007549C96882009A5852681201120D9142D6
:1009000022D17149496982009A5892689203920BE8
:10091000914219D16C49896982009A58D268920330
:10092000920B914210D16849C96982009A58128A83
:1009300092B2914208D16449096A82009A581269B8
:100940009200920C914248D000BF81005F4A5158FA
:100950000988C905C90D5C4A116081005B4A51587C
:1009600009680901890D584A51608100574A515858
:1009700009688903C90D544A11618100534A5158CD
:100980008988C905C90D504A916081004F4A515864
:1009900049680901090D4C4AD16081004B4A515800
:1009A00089688903890B484A51618100474A515837
:1009B000C9688903890B444A91618100434A5158AF
:1009C000098A89B2404AD1618100404A5158096977
:1009D0008900890C3C4A116200BF00BF20680428CE
:1009E00013D17D20C000FFF729FF002860D1FFF759
:1009F000CBFE7D20C000FFF721FF07463448406949
:100A0000042188433249486152E02068022823D1FA
:100A10007D20C000FFF712FF002849D1401E306042
:100A2000656812E02846FFF7C3FE7D20C000FFF78F
:100A300005FF07462648406902218843244948614A
:100A4000002F01D0356006E08035A068C0016168E4
:100A50004018A842E6D82BE00121C902206888424C
:100A600026D17D20C000FFF7E9FE002820D1401EDE
:100A70003060E56815E02846FFF7D4FE7D20C00011
:100A8000FFF7DCFE0746124840690121C90288438E
:100A90000F494861002F01D0356008E001200003B4
:100AA0002D1820690003E1684018A842E3D800BF70
:100AB00000BF00200249087000BF3846E7E600008A
:100AC0001001002000100240002102400C28000804
:100AD00000200240012007494969C2071143054A25
:100AE000516111464969C90FC907002900D000208A
:100AF0007047000000200240F8B507460C46164635
:100B0000012500BF69480078012801D10220F8BD05
:100B100001206649087000BF00BF65494968072287
:100B200052031140480B634909688200624B9A588E
:100B30001288D205D20D914246D15E4949688200A1
:100B40009A5812681201920D91423DD15949096992
:100B500082009A5812689203D20D914234D15549BD
:100B6000896882009A589288D205D20D91422BD181
:100B70005049C96882009A5852681201120D914278
:100B800022D14C49496982009A5892689203920B8B
:100B9000914219D14749896982009A58D2689203D3
:100BA000920B914210D14349C96982009A58128A26
:100BB00092B2914208D13F49096A82009A5812695B
:100BC0009200920C914248D000BF81003A4A51589D
:100BD0000988C905C90D374A11608100364A515844
:100BE00009680901890D334A51608100324A515820
:100BF00009688903C90D2F4A116181002E4A515895
:100C00008988C905C90D2B4A916081002A4A51582B
:100C100049680901090D274AD1608100264A5158C7
:100C200089688903890B234A51618100224A5158FE
:100C3000C9688903890B1F4A916181001E4A515876
:100C4000098A89B21B4AD16181001B4A515809693E
:100C50008900890C174A116200BF00BF6006400E70
:100C6000002801D0012052E77D20C000FFF7E6FDFB
:100C70000546002D12D131462046FFF7A9FD7D2003
:100C8000C000FFF7DBFD05460C4840694008400006
:100C90000A494861002D01D0284638E700BF0020EE
:100CA0000249087000BF284631E70000100100200B
:100CB00000100240002102400C28000800200240E1
:100CC000002009494969C90FC90700290BD0074904
:100CD000054A91600649916011464969C90FC907E3
:100CE000002900D001207047002002402301674501
:100CF000AB89EFCD70B503460022CBE001269640CC
:100D00000C683440002C71D04D68022D02D04D6823
:100D1000122D15D1D508AE001D462035A85955070E
:100D2000EE0E0F25B5400646AE4330465607F60E8A
:100D30000D69B5402843D508AD001E4620367051D8
:100D4000186856000325B5400646AE4330460D7977
:100D5000AD07AD0F5600B540284318604D68012D12
:100D600008D04D68022D05D04D68112D02D04D6878
:100D7000122D18D1986856000325B5400646AE439B
:100D800030465600CD68B540284398605868012524
:100D900095400646AE43304610264D6835402D0935
:100DA000954028435860D86856000325B54006464C
:100DB000AE43304656008D68B5402843D8600126C2
:100DC00036074D683540B54263D1354D9608B600BB
:100DD000A8599507EE0E0F25B5400646AE4330469E
:100DE00005252D07AB4202D1002506E051E02D4D2F
:100DF000AB4201D1012500E002259607F60EB54071
:100E00002843274D9608B600A851254D203528685F
:100E10000546A5432846012636044D683540B542AF
:100E200002D10546254328461D4D203528606868B7
:100E30000546A5432846012676044D683540B5424F
:100E400002D1054625432846154D20356860144DCE
:100E5000603D28680546A5432846012636054D68AD
:100E60003540B54202D10546254328460C4D603D2C
:100E7000286068680546A5432846012676054D6822
:100E80003540B54202D1054625432846044D603D14
:100E90006860521C0D68D540002D00D02EE770BD53
:100EA0006018024000040050024613690B40002BFA
:100EB00001D0012000E000207047002A01D08161AC
:100EC00000E0816270470000014800687047000040
:100ED00040000020034800680349096840180149A0
:100EE00008607047400000204800002010B5002432
:100EF000032000F009F8002801D0012401E000F0EF
:100F000033F8204610BD0000F8B50446002513480C
:100F1000006800281ED0114801687D20C000FFF73E
:100F2000E7F8074639460E480068FFF7E1F806463D
:100F300000F066FB00280BD1042C07D200222146CA
:100F4000401E00F03FF80748046004E0012502E07D
:100F5000012500E001252846F8BD000048000020DA
:100F60003C0000204400002008B500BF0E48006887
:100F7000012108430C49086008460068C007C00FFB
:100F8000009000BF00BF00BF07484038C06B890514
:100F9000084305494039C8630846C06B0904084046
:100FA000009000BF00BF08BD4010024000BFC20655
:100FB000D20E01219140024A116000BF704700002B
:100FC00000E100E070B504460D461646294620466D
:100FD00000F05EFF70BD000070B504460D46002CA9
:100FE00001D1012070BD65480068C007C00FA8424C
:100FF00018D2624800684008400028435F490860F2
:10100000FFF762FF064607E0FFF75EFF801B5C49C3
:10101000884201D90320E5E758480068C007C00F9F
:10102000A842F1D1022120680840022815D10421EC
:1010300020680840042807D1524880680721090326
:10104000884340184F4988604E4880680F21090244
:101050008843A16808434B4988602078C007C00FC7
:10106000002848D06068012808D14648006801215E
:1010700089040840002822D10120B3E760680028D5
:1010800008D140480068012189020840002816D193
:101090000120A7E76068042808D13A484030C069B9
:1010A0000221084000280AD101209BE73548403042
:1010B000006A02210840002801D1012092E731484E
:1010C0008068C008C000616808432E498860FFF747
:1010D000FBFE064607E0FFF7F7FE801B2849884223
:1010E00001D903207EE727488068382108406168DD
:1010F000C9008842EFD121480068C007C00FA8424C
:1011000018D91E4800684008400028431B49086061
:10111000FFF7DAFE064607E0FFF7D6FE801B184908
:10112000884201D903205DE714480068C007C00F5A
:10113000A842F1D1042120680840042808D11148B0
:101140008068072109038843E16808430D498860E6
:1011500000F020F80B4989680F2212021140090A99
:101160008900094A515CC906C90EC8400749086090
:1011700007480068FFF7C8FE34E70000002002407F
:1011800088130000001002408C2700083C0000205B
:101190004400002070B588B020221E496846FEF742
:1011A000D1FF1D48806838210840002814D11A4812
:1011B000006809020840C10A01258D4016484068B0
:1011C000072149030840460BB1006A46505829469A
:1011D000FEF78EFF044619E00F488068382108406A
:1011E000082801D10D4C11E00B48806838210840D7
:1011F000202801D1840209E007488068382108408E
:10120000182802D10124E40300E00024204608B09D
:1012100070BD00002C2800080010024000366E014E
:1012200070B50446002C01D1012070BD2078C007A4
:10123000C00F00281ED0EA48866838210E40082ECC
:1012400004D16068002815D10120EEE700BF01211C
:1012500089046068884205D1E14800680843E04994
:10126000086006E0DE480068012189048843DC4903
:10127000086000BF022120680840022875D1D848C4
:101280008068382108400646002E58D1D4480068AE
:10129000012189020840002804D02069002801D1DA
:1012A0000120C2E7CF48006840084000401CCD49FB
:1012B0000860CB4800680721C90288436169084378
:1012C000C749086008464068000C0004A16908434B
:1012D000C3494860FFF7F8FD054606E0FFF7F4FD57
:1012E000401B022801D903209FE7BD480068012167
:1012F000890208400028F1D0FFF74CFFB8498968FF
:101300000F2212021140090A8900B74A515CC9062E
:10131000C90EC840B549086008460068B44988420B
:1013200005D8B048006840084000AE490860B148A0
:101330000068FFF7E9FD002848D0012075E7206923
:1013400000282AD0A64800680721C902884361699D
:101350000843A34908600846006889150843A04966
:101360000860FFF7B1FD054607E02FE0FFF7ACFD91
:10137000401B022801D9032057E799480068012142
:10138000890208400028F1D095484068000C00040C
:10139000A16908439249486018E091480068FF211C
:1013A000013188438E490860FFF78EFD054606E04F
:1013B000FFF78AFD401B022801D9032035E7884842
:1013C00000680121890208400028F1D10821206825
:1013D000084008286AD182488068382108401828C7
:1013E0003ED17F484030006A02210840002804D0E6
:1013F000E069002801D1012017E7794840687E495B
:101400000840218C0904084375494860FFF75CFDDA
:10141000054606E0FFF758FD401B022801D90320CE
:1014200003E76F484030006A022108400028F1D0ED
:10143000FFF7B0FE6A4989680F2212021140090ABB
:101440008900694A515CC906C90EC84067490860ED
:1014500068480068FFF758FD002842D00120E4E604
:10146000E069002823D05E484030006A012108432B
:101470005B4940310862FFF727FD054606E0FFF7AC
:1014800023FD401B022801D90320CEE654484030FA
:10149000006A022108400028F1D0514840685649AE
:1014A0000840218C090408434D49486019E04C4824
:1014B0004030006A40084000494940310862FFF767
:1014C00003FD054606E0FFF7FFFC401B022801D99B
:1014D0000320AAE642484030006A02210840002862
:1014E000F1D1042120680840042877D13C48806865
:1014F0003821084020280BD139484030C0690221EA
:10150000084000286AD0A068002867D101208CE636
:10151000A068002808D032480069032109048843E4
:10152000E16808432E49086100BFA068012808D17E
:101530002B484030C0690121084329494031C86126
:1015400021E0A06805280FD125484030C06904215A
:10155000084323494031C8610846C0690121084356
:101560001F494031C8610EE01D484030C069400845
:1015700040001B494031C8610846C06904218843C6
:1015800017494031C86100BFA068002813D0FFF799
:101590009BFC054607E0FFF797FC401B1749884274
:1015A00001D9032041E60E484030C06902210840BD
:1015B0000028F0D012E0FFF787FC054607E0FFF7B0
:1015C00083FC401B0D49884201D903202DE60448C5
:1015D0004030C069022108400028F0D1002024E6F4
:1015E00000100240002002408C2700083C00002030
:1015F00000366E0144000020FFFF00FE881300004B
:1016000070B504462546681E0949884201D9012063
:101610000CE0681E074948610321081F00F038FCF0
:1016200000200449886107200861002070BD000087
:10163000FFFFFF0000E000E07047704710B5044670
:10164000002C01D1012010BDA07F002803D16077BC
:10165000204600F00BF80220A077211D206800F042
:101660004BFD0120A0770020EDE7000038B50446CF
:1016700000BF0C4800680121C902084309490860FD
:1016800008460068C9140840009000BF00BF0D2044
:1016900001218140044A116000BF002100F0BCFB21
:1016A00038BD00004010024000E100E0014608683B
:1016B000C068012318430B68D86008688068420737
:1016C000520F062A05D008680068012318430B68EA
:1016D000186000207047704710B504462068006904
:1016E00002210840400800281CD02068C06808403B
:1016F0004008002816D0481F216808610120207783
:10170000206880698007800F002803D02046FFF7FB
:10171000E2FF05E0204600F0C3F8204600F0C1F8E3
:1017200000202077206800690421084080080028F4
:101730001DD02068C06808408008002817D0C84322
:10174000216808610220207720688069032109024E
:101750000840002803D02046FFF7BDFF05E02046E3
:1017600000F09EF8204600F09CF8002020772068CA
:10177000006908210840C00800281CD02068C06803
:101780000840C008002816D0C8432168086104201A
:1017900020772068C0698007800F002803D020468A
:1017A000FFF799FF05E0204600F07AF8204600F0A8
:1017B00078F800202077206800691021084000098F
:1017C00000281DD02068C06808400009002817D0F4
:1017D000C84321680861082020772068C069032178
:1017E00009020840002803D02046FFF774FF05E0F7
:1017F000204600F055F8204600F053F800202077EE
:1018000020680069C007C00F0121484048400028F7
:101810000CD02068C068084048404840002805D0E7
:10182000C81E21680861204600F03CF82068006965
:1018300080210840C00900280BD02068C0680840FB
:10184000C009002805D0C843216808612046FFF779
:10185000F3FE2068006940210840800900280BD071
:101860002068C06808408009002805D0C843216866
:101870000861204600F038F82068006920210840FF
:10188000400900280BD02068C068084040090028A3
:1018900005D0C843216808612046FFF7CEFE10BD81
:1018A0007047704710B5044600F0E8F800F0D2FB2E
:1018B000FEF730FD00F062F80A48006E401C09494E
:1018C00008660846816E806E401C064A9066FF20BE
:1018D000F530814205D311468866002110466030FC
:1018E000417310BDA0000020704700BFFEE700B5A7
:1018F00085B00E20009001200190029002200390FC
:10190000694605200007FFF7F5F9002202210520AE
:101910000007FFF7D2FA0022042105200007FFF795
:10192000CCFA0022082105200007FFF7C6FA0022A2
:101930001521042000F0FCFA00221146032000F0DB
:10194000F7FA00220F21022000F0F2FA00220F2104
:10195000012000F0EDFA05B000BD00B585B0802093
:10196000009000200190022003900290694605201B
:101970000007FFF7BFF905B000BD000010B5002457
:10198000802105200007FFF78FFA44B20B4800784A
:10199000A04205D009490C700020094908600CE0FC
:1019A000074801680068401C054A106005488142EC
:1019B00003D11146086004490C7010BD15000020C9
:1019C00018000020E09304001400002000B585B04A
:1019D000002001900120029010200090694605200F
:1019E0000007FFF787F920200090694605200007CF
:1019F000FFF780F940200090694605200007FFF7B7
:101A000079F905B000BD0188491C01804188491C55
:101A10004180704710B500F043F800F003F800F083
:101A200017F810BD10B50024074A20210520000733
:101A300000F0AEFD0446012C03D1032003490870D9
:101A400000BF00BF10BD0000680000203A00002069
:101A500010B50024074A40210520000700F098FD3A
:101A60000446012C03D102200349087000BF00BFC7
:101A700010BD0000740000203A00002010B5054899
:101A8000FFF7C1FF0448FFF7BEFF0448FFF7BBFFA5
:101A900010BD00005C0000206800002074000020E1
:101AA00010B50024064A10210520000700F070FD43
:101AB0000446012C02D10349087000BF00BF10BDCD
:101AC0005C0000203A00002010B5CC4800780128C6
:101AD00014D1CB480078401CC949087008460078EA
:101AE0000E2801DD002008700020C6490870012082
:101AF000C54908700020C549086026E0BF48007845
:101B0000032814D1BE480078401EBD49087008461D
:101B10000078FF2801D10E2008700020B949087014
:101B20000120B94908700020B84908600DE0B348A9
:101B30000078022809D10020B2490870B249087023
:101B4000B24908600120B24908700020AB49087012
:101B5000AC480078002800D010BDA94800780300E8
:101B600000F030FB0F091E33485D72879CB1C6DB65
:101B7000F4F2F1F01D0000221521042000F0D8F944
:101B800000221146032000F0D3F900220F21022089
:101B900000F0CEF900220F21012000F0C9F929E15F
:101BA00000221521042000F0C3F900221521032092
:101BB00000F0BEF900221146022000F0B9F900221F
:101BC0001221012000F0B4F914E1002215210420B3
:101BD00000F0AEF900221521032000F0A9F900223F
:101BE0000A21022000F0A4F900221121012000F0B6
:101BF0009FF9FFE000221521042000F099F900224E
:101C00001521032000F094F900220121022000F0A8
:101C10008FF900221021012000F08AF9EAE0002269
:101C20001521042000F084F900221521032000F082
:101C30007FF900220221084600F07AF900221021E3
:101C4000012000F075F9D5E000221521042000F0F4
:101C50006FF900221521032000F06AF90022032108
:101C6000022000F065F900221021012000F060F947
:101C7000C0E000221521042000F05AF900221521AD
:101C8000032000F055F900220421022000F050F951
:101C900000221021012000F04BF9ABE000221521B9
:101CA000042000F045F900221521032000F040F93E
:101CB00000220521022000F03BF900221021012022
:101CC00000F036F996E000221521042000F030F9EA
:101CD00000221521032000F02BF90022062102200A
:101CE00000F026F900221021012000F021F981E006
:101CF00000221521042000F01BF9002215210320E9
:101D000000F016F900220721022000F011F900224C
:101D10001021012000F00CF96CE0002215210420B4
:101D200000F006F900221521032000F001F900223D
:101D30000821022000F0FCF800221021012000F010
:101D4000F7F857E041E02BE015E0FFE7002215210E
:101D5000042000F0EDF800221521032000F0E8F83F
:101D600000220921022000F0E3F8002210210120C6
:101D700000F0DEF83EE000221521042000F0D8F843
:101D800000220121032000F0D3F800221146022096
:101D900000F0CEF800221021012000F0C9F829E05F
:101DA00000221521042000F0C3F8002201210320A5
:101DB00000F0BEF800220121022000F0B9F8002254
:101DC0001021012000F0B4F814E0002215210420B5
:101DD00000F0AEF800220121032000F0A9F8002253
:101DE0000221084600F0A4F800221021012000F092
:101DF0009FF800BF00BF00BFAEE600003A00002021
:101E000000000020010000200D0000201000002034
:101E10000C0000207047000010B5002819DA1A4A9B
:101E200003071B0F083B9B089B00D2588307DC0E5F
:101E3000FF23A3409A438B071B0E8407E40EA340A5
:101E40001A43114B0407240F083CA408A4001A519C
:101E500018E00E4A03231B02D21883089B00D258B5
:101E60008307DC0EFF23A3409A438B071B0E8407D6
:101E7000E40EA3401A43054B032424021B198408D3
:101E8000A4001A5110BD00001CED00E000E100E0CC
:101E900010B5002819DA1A4A03071B0F083B9B08E4
:101EA0009B00D2588307DC0EFF23A3409A438B0785
:101EB0001B0E8407E40EA3401A43114B0407240FA2
:101EC000083CA408A4001A5118E00E4A03231B0280
:101ED000D21883089B00D2588307DC0EFF23A3404F
:101EE0009A438B071B0E8407E40EA3401A43054B4D
:101EF000032424021B198408A4001A5110BD0000F9
:101F00001CED00E000E100E0704710B5002305E0A3
:101F100004780C70491C401C5C1CA3B29342F7DB94
:101F200010BD10B500F014FA00F018F910BD000053
:101F3000F7B506460F463B0000F044F9160C0F13A8
:101F4000171B1F23272B2F33373B3F43474B4F5341
:101F5000575B5F633D4C257853E03C4C641C25780F
:101F60004FE03A4CA41C25784BE0384CE41C257813
:101F700047E0364C241D257843E0344C641D257819
:101F80003FE0324CA41D25783BE0304CE41D257821
:101F900037E02E4C0834257833E02C4C0934257872
:101FA0002FE02A4C0A3425782BE0284C0B34257876
:101FB00027E0264C0C34257823E0244C0D3425787A
:101FC0001FE0224C0E3425781BE0204C0F3425787E
:101FD00017E01E4C1034257813E01C4C1134257882
:101FE0000FE01A4C123425780BE0184C1334257886
:101FF00007E0164C1434257803E0144C153425788A
:1020000000BF00BF0298012803D1152F01D06D0633
:102010006D0E284600F02CFA012E03D1304600F058
:1020200027FA10E0022E03D1022000F021FA0AE084
:10203000032E03D1042000F01BFA04E0042E02D189
:10204000082000F015FA00F005FAFEBD1C00002083
:10205000704700000B480078012811D10A48016838
:102060000068401C084A10600848814208D30020DC
:1020700011460860012006490870002001490870D7
:10208000704700000D000020100000203075000097
:102090000C00002010B5FEF71DFF10BD10B50E4856
:1020A0004068000C00040D49098889B208430A49B8
:1020B0004860084640680A49084008494031898814
:1020C000C905C909084304494860C803054988602F
:1020D0006420FEF751F910BD001002400001FF1FFF
:1020E000FFFF00FE00ED00E010B50248FFF7F4FA34
:1020F00010BD00008000002010B50268154B98420A
:1021000005D170241346A3431A464B681A43114B5A
:10211000984202D0104B984206D103242402134661
:10212000A3431A46CB681A4380241346A3434C6941
:1021300023431A4602608B68C3620B688362054BB7
:10214000984202D0044B984201D10B6903630123EA
:10215000436110BD002C01400020004010B50D4827
:102160000D490860FF212C310B48C1600B480A491A
:102170004860002108480161816041618161FFF789
:102180005DFA002801D0FEF713F80348FFF78EFA36
:1021900010BD0000002C0140800000203F1F000007
:1021A000704700000FB410B503A9044B044A02980D
:1021B00000F026F810BC08BC04B01847BD23000886
:1021C0004C00002030B47446641E2578641CAB4279
:1021D00004D3635D5B00E31830BC18471D46F8E785
:1021E00002E008C8121F08C1002AFAD170477047E0
:1021F000002001E001C1121F002AFBD1704700003E
:10220000FFB58DB00446002506E025280AD0109AB7
:102210000F999047641C6D1C20780028F5D1284642
:1022200011B0F0BD00270121484A009700E00743A4
:10223000641C23780846203B98401042F7D1207850
:102240002E2817D1042007436078641C2A280CD15B
:102250000E98641C02C800910E900BE000990A22AF
:10226000514330394018641C0090207801463039C1
:102270000929F3D920780028D1D0642808D069280A
:1022800006D075281ED0109A0F9990476D1C5BE000
:102290000A200E99019001C90E91002802DA4042ED
:1022A0002D2102E0390504D52B216A461172012146
:1022B00003E0F90704D02021F7E70BAE0B910DE006
:1022C0000021FAE70A200E99019001C90E91F7E763
:1022D0000199FDF70DFF3031761E31700028F7D1DE
:1022E00003A8801B20300190780701D5009801E0F9
:1022F000012000900199884201DD401A00E0002091
:102300000027009006E002A8109AC05D0F99904740
:102310006D1C7F1C0B988742F5DB04E0109A30207F
:102320000F9990476D1C0099481E00900029F5DC1C
:1023300005E03078109A761C0F9990476D1C019932
:10234000481E01900029F4DC641C65E7092801009F
:1023500000B587B000BF1648406B012108431449FF
:1023600048630846406BC007C00F019000BF00BF24
:1023700010480290022005900F480390012004901D
:1023800002A905200007FEF7B5FC0520FEF70EFEAA
:10239000002211460520FEF715FE0720FEF706FE77
:1023A000022200210720FEF70DFE07B000BD00004D
:1023B00000100240010200000000311038B5044650
:1023C0006846047069460320ABBE204638BD000055
:1023D00010B51C4CFDF722FF04461A48844201D078
:1023E000002C00D110BD1848201800281CD009214D
:1023F0008904401A0DD08910401A20D11348407B1F
:10240000002805D1012111484173012010490870AD
:1024100015E00E48407B002805D101210B4841738F
:1024200002200B4908700AE00848407B002805D1CB
:1024300001210648417303200549087000BF00BF11
:1024400000BFCFE7FFFFFF00ABAA30FF0001002075
:102450003A00002010B50122042105200007FEF7F4
:102460002CFD0022042105200007FEF726FD10BDEB
:1024700070B504460025082520E080202040002873
:1024800006D00122082105200007FEF716FD05E011
:102490000022082105200007FEF70FFD6006040E4C
:1024A0000122022105200007FEF707FD002202217C
:1024B00005200007FEF701FD681EC5B2012DDCDA1C
:1024C00070BD0000F8B506460F46144600250020F2
:1024D000009039463046FEF7E7FC05462079002893
:1024E00006D001280CD002281ED0032849D137E09D
:1024F000002D04D10020E08020800120207141E0E7
:10250000002D0ED12088E080E0887D21C90088421E
:1025100009DB01202072022020710020E080208051
:1025200001E0002020712DE0207A012806D1002D45
:1025300004D0009000202071207210E0207A012841
:102540000DD1002D0BD12088E080E0880F49884212
:1025500005DB0320009020710020E080208011E046
:10256000002D0DD02088E080E0887D21C9008842C0
:1025700006DB002D04D00420009000202072207182
:1025800000E000BF00BF0098F8BD0000A086010079
:10259000FEB506460F461446002001900025009027
:1025A000224639463046FFF78DFF0546607A0028FF
:1025B00002D0012824D10AE0012D06D10120A07209
:1025C000607200250020608000E0019518E0A07A8C
:1025D000012814D1608800900B490098884208DCDB
:1025E000012D0CD100206072022001900020A07209
:1025F00005E000206072012001900020A07200BF61
:1026000000BF0198FEBD0000B80B0000FEF76EFC95
:10261000FDF7D0FDFFF785FCE1204002FFF7C0FD8C
:10262000FFF7D4F9FFF763F900F00CF809E0FFF7C2
:10263000CFFEFFF7EFF9FFF747FAFEF731F8FDF7A6
:10264000A9FEF4E710B5012209490A48FFF75DFC2D
:1026500007480078FF2806D10020054908700122AC
:10266000044800F01BF8FFF778F900F005F810BDFA
:1026700000000020003C000800B585B0022000905A
:102680000120019002200390002002906946024838
:10269000FEF730FB05B000BD00040050F0B589B076
:1026A00005460E46174600200890142103A8FDF7A2
:1026B00062FD7800401902902C46002001900090A5
:1026C0000120C006854202D2012009B0F0BDFEF70C
:1026D000F7FA0220039004957800C009059008A934
:1026E00003A8FEF7C9F8002805D01DA00899FFF738
:1026F00059FD0120009010E0019840008219214608
:102700000120FEF7F9F9002804D180340198203027
:10271000019001E00120009020340098012802D0AF
:1027200002988442E8D32C46002001900DE02288D4
:102730000198411C40000191305A824204D001208E
:1027400000900CA0FFF72EFDA41C0298844202D238
:1027500000980128EBD1FEF7BDF90098B5E700001D
:10276000504147454572726F72203D202564200D0F
:102770000A000000666C617368207665727966797C
:10278000206572722121210D0A0000000000000066
:102790000000000000000000000000000000000039
:1027A0000000000000000000000000000100000028
:1027B000020000000300000004000000060000000A
:1027C00007000000080000000900000000000000F1
:1027D00000000000000000000000000001000000F8
:1027E00002000000030000000400000000093D009A
:1027F00000127A00000000000000000000366E01A8
:102800000000000000000000000000005801FF1F51
:102810006C01FF1F1C01FF1F1C01FF1F1C01FF1F7C
:102820003001FF1F1C01FF1F1C01FF1F00093D009D
:1028300000127A00000000000000000000366E0167
:102840000000000000000000000000006C280008EC
:102850000000002050000000E0210008BC28000813
:1028600050000020D8040000F02100080000000003
:102870000000000000000000000100000000000057
:10288000FFFF000000000000C0F9A4B0999282F898
:1028900080908883C6A1868E89C1C8BF7FFF000053
:1028A000000000000000000000366E010000000083
:0C28B00004000000010000000000000017
:04000005080000C12E
:00000001FF
